{
  "_format": "hh-sol-artifact-1",
  "contractName": "SportInvestingToken",
  "sourceName": "contracts/SportInvestingToken.sol",
  "abi": [
    {
      "inputs": [],
      "stateMutability": "nonpayable",
      "type": "constructor"
    },
    {
      "anonymous": false,
      "inputs": [
        {
          "indexed": false,
          "internalType": "address",
          "name": "previousAdmin",
          "type": "address"
        },
        {
          "indexed": false,
          "internalType": "address",
          "name": "newAdmin",
          "type": "address"
        }
      ],
      "name": "AdminChanged",
      "type": "event"
    },
    {
      "anonymous": false,
      "inputs": [
        {
          "indexed": true,
          "internalType": "address",
          "name": "owner",
          "type": "address"
        },
        {
          "indexed": true,
          "internalType": "address",
          "name": "spender",
          "type": "address"
        },
        {
          "indexed": false,
          "internalType": "uint256",
          "name": "value",
          "type": "uint256"
        }
      ],
      "name": "Approval",
      "type": "event"
    },
    {
      "anonymous": false,
      "inputs": [
        {
          "indexed": true,
          "internalType": "address",
          "name": "beacon",
          "type": "address"
        }
      ],
      "name": "BeaconUpgraded",
      "type": "event"
    },
    {
      "anonymous": false,
      "inputs": [
        {
          "indexed": true,
          "internalType": "address",
          "name": "previousOwner",
          "type": "address"
        },
        {
          "indexed": true,
          "internalType": "address",
          "name": "newOwner",
          "type": "address"
        }
      ],
      "name": "OwnershipTransferred",
      "type": "event"
    },
    {
      "anonymous": false,
      "inputs": [
        {
          "indexed": false,
          "internalType": "address",
          "name": "account",
          "type": "address"
        }
      ],
      "name": "Paused",
      "type": "event"
    },
    {
      "anonymous": false,
      "inputs": [
        {
          "indexed": false,
          "internalType": "uint256",
          "name": "id",
          "type": "uint256"
        }
      ],
      "name": "Snapshot",
      "type": "event"
    },
    {
      "anonymous": false,
      "inputs": [
        {
          "indexed": true,
          "internalType": "address",
          "name": "from",
          "type": "address"
        },
        {
          "indexed": true,
          "internalType": "address",
          "name": "to",
          "type": "address"
        },
        {
          "indexed": false,
          "internalType": "uint256",
          "name": "value",
          "type": "uint256"
        }
      ],
      "name": "Transfer",
      "type": "event"
    },
    {
      "anonymous": false,
      "inputs": [
        {
          "indexed": false,
          "internalType": "address",
          "name": "account",
          "type": "address"
        }
      ],
      "name": "Unpaused",
      "type": "event"
    },
    {
      "anonymous": false,
      "inputs": [
        {
          "indexed": true,
          "internalType": "address",
          "name": "implementation",
          "type": "address"
        }
      ],
      "name": "Upgraded",
      "type": "event"
    },
    {
      "inputs": [],
      "name": "DOMAIN_SEPARATOR",
      "outputs": [
        {
          "internalType": "bytes32",
          "name": "",
          "type": "bytes32"
        }
      ],
      "stateMutability": "view",
      "type": "function"
    },
    {
      "inputs": [
        {
          "internalType": "address",
          "name": "owner",
          "type": "address"
        },
        {
          "internalType": "address",
          "name": "spender",
          "type": "address"
        }
      ],
      "name": "allowance",
      "outputs": [
        {
          "internalType": "uint256",
          "name": "",
          "type": "uint256"
        }
      ],
      "stateMutability": "view",
      "type": "function"
    },
    {
      "inputs": [
        {
          "internalType": "address",
          "name": "spender",
          "type": "address"
        },
        {
          "internalType": "uint256",
          "name": "amount",
          "type": "uint256"
        }
      ],
      "name": "approve",
      "outputs": [
        {
          "internalType": "bool",
          "name": "",
          "type": "bool"
        }
      ],
      "stateMutability": "nonpayable",
      "type": "function"
    },
    {
      "inputs": [
        {
          "internalType": "address",
          "name": "account",
          "type": "address"
        }
      ],
      "name": "balanceOf",
      "outputs": [
        {
          "internalType": "uint256",
          "name": "",
          "type": "uint256"
        }
      ],
      "stateMutability": "view",
      "type": "function"
    },
    {
      "inputs": [
        {
          "internalType": "address",
          "name": "account",
          "type": "address"
        },
        {
          "internalType": "uint256",
          "name": "snapshotId",
          "type": "uint256"
        }
      ],
      "name": "balanceOfAt",
      "outputs": [
        {
          "internalType": "uint256",
          "name": "",
          "type": "uint256"
        }
      ],
      "stateMutability": "view",
      "type": "function"
    },
    {
      "inputs": [
        {
          "internalType": "uint256",
          "name": "amount",
          "type": "uint256"
        }
      ],
      "name": "burn",
      "outputs": [],
      "stateMutability": "nonpayable",
      "type": "function"
    },
    {
      "inputs": [
        {
          "internalType": "address",
          "name": "account",
          "type": "address"
        },
        {
          "internalType": "uint256",
          "name": "amount",
          "type": "uint256"
        }
      ],
      "name": "burnFrom",
      "outputs": [],
      "stateMutability": "nonpayable",
      "type": "function"
    },
    {
      "inputs": [],
      "name": "decimals",
      "outputs": [
        {
          "internalType": "uint8",
          "name": "",
          "type": "uint8"
        }
      ],
      "stateMutability": "view",
      "type": "function"
    },
    {
      "inputs": [
        {
          "internalType": "address",
          "name": "spender",
          "type": "address"
        },
        {
          "internalType": "uint256",
          "name": "subtractedValue",
          "type": "uint256"
        }
      ],
      "name": "decreaseAllowance",
      "outputs": [
        {
          "internalType": "bool",
          "name": "",
          "type": "bool"
        }
      ],
      "stateMutability": "nonpayable",
      "type": "function"
    },
    {
      "inputs": [
        {
          "internalType": "address",
          "name": "spender",
          "type": "address"
        },
        {
          "internalType": "uint256",
          "name": "addedValue",
          "type": "uint256"
        }
      ],
      "name": "increaseAllowance",
      "outputs": [
        {
          "internalType": "bool",
          "name": "",
          "type": "bool"
        }
      ],
      "stateMutability": "nonpayable",
      "type": "function"
    },
    {
      "inputs": [],
      "name": "initialize",
      "outputs": [],
      "stateMutability": "nonpayable",
      "type": "function"
    },
    {
      "inputs": [],
      "name": "name",
      "outputs": [
        {
          "internalType": "string",
          "name": "",
          "type": "string"
        }
      ],
      "stateMutability": "view",
      "type": "function"
    },
    {
      "inputs": [
        {
          "internalType": "address",
          "name": "owner",
          "type": "address"
        }
      ],
      "name": "nonces",
      "outputs": [
        {
          "internalType": "uint256",
          "name": "",
          "type": "uint256"
        }
      ],
      "stateMutability": "view",
      "type": "function"
    },
    {
      "inputs": [],
      "name": "owner",
      "outputs": [
        {
          "internalType": "address",
          "name": "",
          "type": "address"
        }
      ],
      "stateMutability": "view",
      "type": "function"
    },
    {
      "inputs": [],
      "name": "pause",
      "outputs": [],
      "stateMutability": "nonpayable",
      "type": "function"
    },
    {
      "inputs": [],
      "name": "paused",
      "outputs": [
        {
          "internalType": "bool",
          "name": "",
          "type": "bool"
        }
      ],
      "stateMutability": "view",
      "type": "function"
    },
    {
      "inputs": [
        {
          "internalType": "address",
          "name": "owner",
          "type": "address"
        },
        {
          "internalType": "address",
          "name": "spender",
          "type": "address"
        },
        {
          "internalType": "uint256",
          "name": "value",
          "type": "uint256"
        },
        {
          "internalType": "uint256",
          "name": "deadline",
          "type": "uint256"
        },
        {
          "internalType": "uint8",
          "name": "v",
          "type": "uint8"
        },
        {
          "internalType": "bytes32",
          "name": "r",
          "type": "bytes32"
        },
        {
          "internalType": "bytes32",
          "name": "s",
          "type": "bytes32"
        }
      ],
      "name": "permit",
      "outputs": [],
      "stateMutability": "nonpayable",
      "type": "function"
    },
    {
      "inputs": [],
      "name": "renounceOwnership",
      "outputs": [],
      "stateMutability": "nonpayable",
      "type": "function"
    },
    {
      "inputs": [],
      "name": "snapshot",
      "outputs": [],
      "stateMutability": "nonpayable",
      "type": "function"
    },
    {
      "inputs": [],
      "name": "symbol",
      "outputs": [
        {
          "internalType": "string",
          "name": "",
          "type": "string"
        }
      ],
      "stateMutability": "view",
      "type": "function"
    },
    {
      "inputs": [],
      "name": "totalSupply",
      "outputs": [
        {
          "internalType": "uint256",
          "name": "",
          "type": "uint256"
        }
      ],
      "stateMutability": "view",
      "type": "function"
    },
    {
      "inputs": [
        {
          "internalType": "uint256",
          "name": "snapshotId",
          "type": "uint256"
        }
      ],
      "name": "totalSupplyAt",
      "outputs": [
        {
          "internalType": "uint256",
          "name": "",
          "type": "uint256"
        }
      ],
      "stateMutability": "view",
      "type": "function"
    },
    {
      "inputs": [
        {
          "internalType": "address",
          "name": "recipient",
          "type": "address"
        },
        {
          "internalType": "uint256",
          "name": "amount",
          "type": "uint256"
        }
      ],
      "name": "transfer",
      "outputs": [
        {
          "internalType": "bool",
          "name": "",
          "type": "bool"
        }
      ],
      "stateMutability": "nonpayable",
      "type": "function"
    },
    {
      "inputs": [
        {
          "internalType": "address",
          "name": "sender",
          "type": "address"
        },
        {
          "internalType": "address",
          "name": "recipient",
          "type": "address"
        },
        {
          "internalType": "uint256",
          "name": "amount",
          "type": "uint256"
        }
      ],
      "name": "transferFrom",
      "outputs": [
        {
          "internalType": "bool",
          "name": "",
          "type": "bool"
        }
      ],
      "stateMutability": "nonpayable",
      "type": "function"
    },
    {
      "inputs": [
        {
          "internalType": "address",
          "name": "newOwner",
          "type": "address"
        }
      ],
      "name": "transferOwnership",
      "outputs": [],
      "stateMutability": "nonpayable",
      "type": "function"
    },
    {
      "inputs": [],
      "name": "unpause",
      "outputs": [],
      "stateMutability": "nonpayable",
      "type": "function"
    },
    {
      "inputs": [
        {
          "internalType": "address",
          "name": "newImplementation",
          "type": "address"
        }
      ],
      "name": "upgradeTo",
      "outputs": [],
      "stateMutability": "nonpayable",
      "type": "function"
    },
    {
      "inputs": [
        {
          "internalType": "address",
          "name": "newImplementation",
          "type": "address"
        },
        {
          "internalType": "bytes",
          "name": "data",
          "type": "bytes"
        }
      ],
      "name": "upgradeToAndCall",
      "outputs": [],
      "stateMutability": "payable",
      "type": "function"
    }
  ],
  "bytecode": "0x60a06040523060601b6080523480156200001857600080fd5b50600054610100900460ff168062000033575060005460ff16155b6200009b5760405162461bcd60e51b815260206004820152602e60248201527f496e697469616c697a61626c653a20636f6e747261637420697320616c72656160448201526d191e481a5b9a5d1a585b1a5e995960921b606482015260840160405180910390fd5b600054610100900460ff16158015620000c7576000805460ff1961ff0019909116610100171660011790555b8015620000da576000805461ff00191690555b5060805160601c612c6b6200010f60003960008181610694015281816106d40152818161082001526108600152612c6b6000f3fe6080604052600436106101b75760003560e01c8063715018a6116100ec5780639711715a1161008a578063a9059cbb11610064578063a9059cbb1461047a578063d505accf1461049a578063dd62ed3e146104ba578063f2fde38b14610500576101b7565b80639711715a14610425578063981b24d01461043a578063a457c2d71461045a576101b7565b80638129fc1c116100c65780638129fc1c146103be5780638456cb59146103d35780638da5cb5b146103e857806395d89b4114610410576101b7565b8063715018a61461036957806379cc67901461037e5780637ecebe001461039e576101b7565b806339509351116101595780634ee2cd7e116101335780634ee2cd7e146102fe5780634f1ef2861461031e5780635c975abb1461033157806370a0823114610349576101b7565b806339509351146102a95780633f4ba83a146102c957806342966c68146102de576101b7565b806323b872dd1161019557806323b872dd14610236578063313ce567146102565780633644e515146102725780633659cfe614610287576101b7565b806306fdde03146101bc578063095ea7b3146101e757806318160ddd14610217575b600080fd5b3480156101c857600080fd5b506101d1610520565b6040516101de91906128b7565b60405180910390f35b3480156101f357600080fd5b5061020761020236600461285a565b6105b2565b60405190151581526020016101de565b34801561022357600080fd5b506035545b6040519081526020016101de565b34801561024257600080fd5b506102076102513660046126f1565b6105c9565b34801561026257600080fd5b50604051601281526020016101de565b34801561027e57600080fd5b5061022861067a565b34801561029357600080fd5b506102a76102a23660046126a5565b610689565b005b3480156102b557600080fd5b506102076102c436600461285a565b610752565b3480156102d557600080fd5b506102a761078e565b3480156102ea57600080fd5b506102a76102f9366004612883565b6107c2565b34801561030a57600080fd5b5061022861031936600461285a565b6107cc565b6102a761032c36600461279d565b610815565b34801561033d57600080fd5b5060fb5460ff16610207565b34801561035557600080fd5b506102286103643660046126a5565b6108cf565b34801561037557600080fd5b506102a76108ee565b34801561038a57600080fd5b506102a761039936600461285a565b610922565b3480156103aa57600080fd5b506102286103b93660046126a5565b6109a8565b3480156103ca57600080fd5b506102a76109c7565b3480156103df57600080fd5b506102a7610b01565b3480156103f457600080fd5b5060c9546040516001600160a01b0390911681526020016101de565b34801561041c57600080fd5b506101d1610b33565b34801561043157600080fd5b506102a7610b42565b34801561044657600080fd5b50610228610455366004612883565b610b74565b34801561046657600080fd5b5061020761047536600461285a565b610b9f565b34801561048657600080fd5b5061020761049536600461285a565b610c38565b3480156104a657600080fd5b506102a76104b536600461272c565b610c45565b3480156104c657600080fd5b506102286104d53660046126bf565b6001600160a01b03918216600090815260346020908152604080832093909416825291909152205490565b34801561050c57600080fd5b506102a761051b3660046126a5565b610d8c565b60606036805461052f90612bad565b80601f016020809104026020016040519081016040528092919081815260200182805461055b90612bad565b80156105a85780601f1061057d576101008083540402835291602001916105a8565b820191906000526020600020905b81548152906001019060200180831161058b57829003601f168201915b5050505050905090565b60006105bf338484610e24565b5060015b92915050565b60006105d6848484610f48565b6001600160a01b0384166000908152603460209081526040808320338452909152902054828110156106605760405162461bcd60e51b815260206004820152602860248201527f45524332303a207472616e7366657220616d6f756e74206578636565647320616044820152676c6c6f77616e636560c01b60648201526084015b60405180910390fd5b61066d8533858403610e24565b60019150505b9392505050565b6000610684611123565b905090565b306001600160a01b037f00000000000000000000000000000000000000000000000000000000000000001614156106d25760405162461bcd60e51b8152600401610657906128ea565b7f00000000000000000000000000000000000000000000000000000000000000006001600160a01b03166107046111a0565b6001600160a01b03161461072a5760405162461bcd60e51b815260040161065790612936565b610733816111ce565b6040805160008082526020820190925261074f918391906111f8565b50565b3360008181526034602090815260408083206001600160a01b038716845290915281205490916105bf918590610789908690612a05565b610e24565b60c9546001600160a01b031633146107b85760405162461bcd60e51b8152600401610657906129d0565b6107c0611343565b565b61074f33826113d6565b6001600160a01b0382166000908152609760205260408120819081906107f3908590611530565b915091508161080a57610805856108cf565b61080c565b805b95945050505050565b306001600160a01b037f000000000000000000000000000000000000000000000000000000000000000016141561085e5760405162461bcd60e51b8152600401610657906128ea565b7f00000000000000000000000000000000000000000000000000000000000000006001600160a01b03166108906111a0565b6001600160a01b0316146108b65760405162461bcd60e51b815260040161065790612936565b6108bf826111ce565b6108cb828260016111f8565b5050565b6001600160a01b0381166000908152603360205260409020545b919050565b60c9546001600160a01b031633146109185760405162461bcd60e51b8152600401610657906129d0565b6107c06000611635565b600061092e83336104d5565b90508181101561098c5760405162461bcd60e51b8152602060048201526024808201527f45524332303a206275726e20616d6f756e74206578636565647320616c6c6f77604482015263616e636560e01b6064820152608401610657565b6109998333848403610e24565b6109a383836113d6565b505050565b6001600160a01b038116600090815261016160205260408120546105c3565b600054610100900460ff16806109e0575060005460ff16155b6109fc5760405162461bcd60e51b815260040161065790612982565b600054610100900460ff16158015610a27576000805460ff1961ff0019909116610100171660011790555b610a736040518060400160405280600e81526020016d53706f7274496e76657374696e6760901b815250604051806040016040528060048152602001630a692a8b60e31b815250611687565b610a7b61170f565b610a8361170f565b610a8b61177f565b610a936117ef565b610ac26040518060400160405280600e81526020016d53706f7274496e76657374696e6760901b81525061185f565b610aca61170f565b610aed33610ada6012600a612a7a565b610ae89063fcb94400612b4b565b611908565b801561074f576000805461ff001916905550565b60c9546001600160a01b03163314610b2b5760405162461bcd60e51b8152600401610657906129d0565b6107c06119f4565b60606037805461052f90612bad565b60c9546001600160a01b03163314610b6c5760405162461bcd60e51b8152600401610657906129d0565b61074f611a6f565b6000806000610b84846098611530565b9150915081610b9557603554610b97565b805b949350505050565b3360009081526034602090815260408083206001600160a01b038616845290915281205482811015610c215760405162461bcd60e51b815260206004820152602560248201527f45524332303a2064656372656173656420616c6c6f77616e63652062656c6f77604482015264207a65726f60d81b6064820152608401610657565b610c2e3385858403610e24565b5060019392505050565b60006105bf338484610f48565b83421115610c955760405162461bcd60e51b815260206004820152601d60248201527f45524332305065726d69743a206578706972656420646561646c696e650000006044820152606401610657565b600061016254888888610ca78c611ac9565b6040805160208101969096526001600160a01b0394851690860152929091166060840152608083015260a082015260c0810186905260e0016040516020818303038152906040528051906020012090506000610d0282611af2565b90506000610d1282878787611b40565b9050896001600160a01b0316816001600160a01b031614610d755760405162461bcd60e51b815260206004820152601e60248201527f45524332305065726d69743a20696e76616c6964207369676e617475726500006044820152606401610657565b610d808a8a8a610e24565b50505050505050505050565b60c9546001600160a01b03163314610db65760405162461bcd60e51b8152600401610657906129d0565b6001600160a01b038116610e1b5760405162461bcd60e51b815260206004820152602660248201527f4f776e61626c653a206e6577206f776e657220697320746865207a65726f206160448201526564647265737360d01b6064820152608401610657565b61074f81611635565b6001600160a01b038316610e865760405162461bcd60e51b8152602060048201526024808201527f45524332303a20617070726f76652066726f6d20746865207a65726f206164646044820152637265737360e01b6064820152608401610657565b6001600160a01b038216610ee75760405162461bcd60e51b815260206004820152602260248201527f45524332303a20617070726f766520746f20746865207a65726f206164647265604482015261737360f01b6064820152608401610657565b6001600160a01b0383811660008181526034602090815260408083209487168084529482529182902085905590518481527f8c5be1e5ebec7d5bd14f71427d1e84f3dd0314c0f7b2291e5b200ac8c7c3b925910160405180910390a3505050565b6001600160a01b038316610fac5760405162461bcd60e51b815260206004820152602560248201527f45524332303a207472616e736665722066726f6d20746865207a65726f206164604482015264647265737360d81b6064820152608401610657565b6001600160a01b03821661100e5760405162461bcd60e51b815260206004820152602360248201527f45524332303a207472616e7366657220746f20746865207a65726f206164647260448201526265737360e81b6064820152608401610657565b611019838383611b68565b6001600160a01b038316600090815260336020526040902054818110156110915760405162461bcd60e51b815260206004820152602660248201527f45524332303a207472616e7366657220616d6f756e7420657863656564732062604482015265616c616e636560d01b6064820152608401610657565b6001600160a01b038085166000908152603360205260408082208585039055918516815290812080548492906110c8908490612a05565b92505081905550826001600160a01b0316846001600160a01b03167fddf252ad1be2c89b69c2b068fc378daa952ba7f163c4a11628f55a4df523b3ef8460405161111491815260200190565b60405180910390a35b50505050565b60006106847f8b73c3c69bb8fe3d512ecc4cf759cc79239f7b179b0ffacaa9a75d522b39400f61115361012d5490565b61012e546040805160208101859052908101839052606081018290524660808201523060a082015260009060c0016040516020818303038152906040528051906020012090509392505050565b7f360894a13ba1a3210667c828492db98dca3e2076cc3735a920a3ca505d382bbc546001600160a01b031690565b60c9546001600160a01b0316331461074f5760405162461bcd60e51b8152600401610657906129d0565b60006112026111a0565b905061120d84611bb9565b60008351118061121a5750815b1561122b576112298484611c5e565b505b7f4910fdfa16fed3260ed0e7147f7cc6da11a60208b5b9406d12a635614ffd9143805460ff1661133c57805460ff191660011781556040516001600160a01b03831660248201526112aa90869060440160408051601f198184030181529190526020810180516001600160e01b0316631b2ce7f360e11b179052611c5e565b50805460ff191681556112bb6111a0565b6001600160a01b0316826001600160a01b0316146113335760405162461bcd60e51b815260206004820152602f60248201527f45524331393637557067726164653a207570677261646520627265616b73206660448201526e75727468657220757067726164657360881b6064820152608401610657565b61133c85611d40565b5050505050565b60fb5460ff1661138c5760405162461bcd60e51b815260206004820152601460248201527314185d5cd8589b194e881b9bdd081c185d5cd95960621b6044820152606401610657565b60fb805460ff191690557f5db9ee0a495bf2e6ff9c91a7834c1ba4fdd244a5e8aa4e537bd38aeae4b073aa335b6040516001600160a01b03909116815260200160405180910390a1565b6001600160a01b0382166114365760405162461bcd60e51b815260206004820152602160248201527f45524332303a206275726e2066726f6d20746865207a65726f206164647265736044820152607360f81b6064820152608401610657565b61144282600083611b68565b6001600160a01b038216600090815260336020526040902054818110156114b65760405162461bcd60e51b815260206004820152602260248201527f45524332303a206275726e20616d6f756e7420657863656564732062616c616e604482015261636560f01b6064820152608401610657565b6001600160a01b03831660009081526033602052604081208383039055603580548492906114e5908490612b6a565b90915550506040518281526000906001600160a01b038516907fddf252ad1be2c89b69c2b068fc378daa952ba7f163c4a11628f55a4df523b3ef9060200160405180910390a36109a3565b6000806000841161157c5760405162461bcd60e51b815260206004820152601660248201527504552433230536e617073686f743a20696420697320360541b6044820152606401610657565b611584611d80565b8411156115d35760405162461bcd60e51b815260206004820152601d60248201527f4552433230536e617073686f743a206e6f6e6578697374656e742069640000006044820152606401610657565b60006115df8486611d8b565b84549091508114156115f857600080925092505061162e565b600184600101828154811061161d57634e487b7160e01b600052603260045260246000fd5b906000526020600020015492509250505b9250929050565b60c980546001600160a01b038381166001600160a01b0319831681179093556040519116919082907f8be0079c531659141344cd1fd0a4f28419497f9722a3daafe3b4186f6b6457e090600090a35050565b600054610100900460ff16806116a0575060005460ff16155b6116bc5760405162461bcd60e51b815260040161065790612982565b600054610100900460ff161580156116e7576000805460ff1961ff0019909116610100171660011790555b6116ef611e6a565b6116f98383611edd565b80156109a3576000805461ff0019169055505050565b600054610100900460ff1680611728575060005460ff16155b6117445760405162461bcd60e51b815260040161065790612982565b600054610100900460ff1615801561176f576000805460ff1961ff0019909116610100171660011790555b611777611e6a565b610aed611e6a565b600054610100900460ff1680611798575060005460ff16155b6117b45760405162461bcd60e51b815260040161065790612982565b600054610100900460ff161580156117df576000805460ff1961ff0019909116610100171660011790555b6117e7611e6a565b610aed611f7b565b600054610100900460ff1680611808575060005460ff16155b6118245760405162461bcd60e51b815260040161065790612982565b600054610100900460ff1615801561184f576000805460ff1961ff0019909116610100171660011790555b611857611e6a565b610aed611fe4565b600054610100900460ff1680611878575060005460ff16155b6118945760405162461bcd60e51b815260040161065790612982565b600054610100900460ff161580156118bf576000805460ff1961ff0019909116610100171660011790555b6118c7611e6a565b6118ea82604051806040016040528060018152602001603160f81b815250612062565b6118f3826120f7565b80156108cb576000805461ff00191690555050565b6001600160a01b03821661195e5760405162461bcd60e51b815260206004820152601f60248201527f45524332303a206d696e7420746f20746865207a65726f2061646472657373006044820152606401610657565b61196a60008383611b68565b806035600082825461197c9190612a05565b90915550506001600160a01b038216600090815260336020526040812080548392906119a9908490612a05565b90915550506040518181526001600160a01b038316906000907fddf252ad1be2c89b69c2b068fc378daa952ba7f163c4a11628f55a4df523b3ef9060200160405180910390a36108cb565b60fb5460ff1615611a3a5760405162461bcd60e51b815260206004820152601060248201526f14185d5cd8589b194e881c185d5cd95960821b6044820152606401610657565b60fb805460ff191660011790557f62e78cea01bee320cd4e420270b5ea74000d11b0c9f74754ebdbfc544b05a2586113b93390565b6000611a7f609a80546001019055565b6000611a89611d80565b90507f8030e83b04d87bef53480e26263266d6ca66863aa8506aca6f2559d18aa1cb6781604051611abc91815260200190565b60405180910390a1905090565b6001600160a01b0381166000908152610161602052604090208054600181018255905b50919050565b60006105c3611aff611123565b8360405161190160f01b6020820152602281018390526042810182905260009060620160405160208183030381529060405280519060200120905092915050565b6000806000611b5187878787612191565b91509150611b5e8161227e565b5095945050505050565b60fb5460ff1615611bae5760405162461bcd60e51b815260206004820152601060248201526f14185d5cd8589b194e881c185d5cd95960821b6044820152606401610657565b6109a3838383612481565b803b611c1d5760405162461bcd60e51b815260206004820152602d60248201527f455243313936373a206e657720696d706c656d656e746174696f6e206973206e60448201526c1bdd08184818dbdb9d1c9858dd609a1b6064820152608401610657565b7f360894a13ba1a3210667c828492db98dca3e2076cc3735a920a3ca505d382bbc80546001600160a01b0319166001600160a01b0392909216919091179055565b6060823b611cbd5760405162461bcd60e51b815260206004820152602660248201527f416464726573733a2064656c65676174652063616c6c20746f206e6f6e2d636f6044820152651b9d1c9858dd60d21b6064820152608401610657565b600080846001600160a01b031684604051611cd8919061289b565b600060405180830381855af49150503d8060008114611d13576040519150601f19603f3d011682016040523d82523d6000602084013e611d18565b606091505b509150915061080c8282604051806060016040528060278152602001612c0f602791396124ce565b611d4981611bb9565b6040516001600160a01b038216907fbc7cd75a20ee27fd9adebab32041f755214dbc6bffa90cc0225b39da2e5c2d3b90600090a250565b6000610684609a5490565b8154600090611d9c575060006105c3565b82546000905b80821015611e06576000611db68383612507565b905084868281548110611dd957634e487b7160e01b600052603260045260246000fd5b90600052602060002001541115611df257809150611e00565b611dfd816001612a05565b92505b50611da2565b600082118015611e4957508385611e1e600185612b6a565b81548110611e3c57634e487b7160e01b600052603260045260246000fd5b9060005260206000200154145b15611e6257611e59600183612b6a565b925050506105c3565b5090506105c3565b600054610100900460ff1680611e83575060005460ff16155b611e9f5760405162461bcd60e51b815260040161065790612982565b600054610100900460ff16158015610aed576000805460ff1961ff001990911661010017166001179055801561074f576000805461ff001916905550565b600054610100900460ff1680611ef6575060005460ff16155b611f125760405162461bcd60e51b815260040161065790612982565b600054610100900460ff16158015611f3d576000805460ff1961ff0019909116610100171660011790555b8251611f509060369060208601906125f5565b508151611f649060379060208501906125f5565b5080156109a3576000805461ff0019169055505050565b600054610100900460ff1680611f94575060005460ff16155b611fb05760405162461bcd60e51b815260040161065790612982565b600054610100900460ff16158015611fdb576000805460ff1961ff0019909116610100171660011790555b610aed33611635565b600054610100900460ff1680611ffd575060005460ff16155b6120195760405162461bcd60e51b815260040161065790612982565b600054610100900460ff16158015612044576000805460ff1961ff0019909116610100171660011790555b60fb805460ff19169055801561074f576000805461ff001916905550565b600054610100900460ff168061207b575060005460ff16155b6120975760405162461bcd60e51b815260040161065790612982565b600054610100900460ff161580156120c2576000805460ff1961ff0019909116610100171660011790555b825160208085019190912083519184019190912061012d9190915561012e5580156109a3576000805461ff0019169055505050565b600054610100900460ff1680612110575060005460ff16155b61212c5760405162461bcd60e51b815260040161065790612982565b600054610100900460ff16158015612157576000805460ff1961ff0019909116610100171660011790555b7f6e71edae12b1b97f4d1f60370fef10105fa2faae0126114a169c64845d6126c96101625580156108cb576000805461ff00191690555050565b6000807f7fffffffffffffffffffffffffffffff5d576e7357a4501ddfe92f46681b20a08311156121c85750600090506003612275565b8460ff16601b141580156121e057508460ff16601c14155b156121f15750600090506004612275565b6040805160008082526020820180845289905260ff881692820192909252606081018690526080810185905260019060a0016020604051602081039080840390855afa158015612245573d6000803e3d6000fd5b5050604051601f1901519150506001600160a01b03811661226e57600060019250925050612275565b9150600090505b94509492505050565b60008160048111156122a057634e487b7160e01b600052602160045260246000fd5b14156122ab5761074f565b60018160048111156122cd57634e487b7160e01b600052602160045260246000fd5b141561231b5760405162461bcd60e51b815260206004820152601860248201527f45434453413a20696e76616c6964207369676e617475726500000000000000006044820152606401610657565b600281600481111561233d57634e487b7160e01b600052602160045260246000fd5b141561238b5760405162461bcd60e51b815260206004820152601f60248201527f45434453413a20696e76616c6964207369676e6174757265206c656e677468006044820152606401610657565b60038160048111156123ad57634e487b7160e01b600052602160045260246000fd5b14156124065760405162461bcd60e51b815260206004820152602260248201527f45434453413a20696e76616c6964207369676e6174757265202773272076616c604482015261756560f01b6064820152608401610657565b600481600481111561242857634e487b7160e01b600052602160045260246000fd5b141561074f5760405162461bcd60e51b815260206004820152602260248201527f45434453413a20696e76616c6964207369676e6174757265202776272076616c604482015261756560f01b6064820152608401610657565b6001600160a01b0383166124a55761249882612522565b6124a061254c565b6109a3565b6001600160a01b0382166124bc5761249883612522565b6124c583612522565b6109a382612522565b606083156124dd575081610673565b8251156124ed5782518084602001fd5b8160405162461bcd60e51b815260040161065791906128b7565b60006125166002848418612a1d565b61067390848416612a05565b6001600160a01b038116600090815260976020526040902061074f90612547836108cf565b61255a565b6107c0609861254760355490565b6000612564611d80565b905080612570846125a4565b10156109a3578254600180820185556000858152602080822090930193909355938401805494850181558252902090910155565b80546000906125b5575060006108e9565b815482906125c590600190612b6a565b815481106125e357634e487b7160e01b600052603260045260246000fd5b906000526020600020015490506108e9565b82805461260190612bad565b90600052602060002090601f0160209004810192826126235760008555612669565b82601f1061263c57805160ff1916838001178555612669565b82800160010185558215612669579182015b8281111561266957825182559160200191906001019061264e565b50612675929150612679565b5090565b5b80821115612675576000815560010161267a565b80356001600160a01b03811681146108e957600080fd5b6000602082840312156126b6578081fd5b6106738261268e565b600080604083850312156126d1578081fd5b6126da8361268e565b91506126e86020840161268e565b90509250929050565b600080600060608486031215612705578081fd5b61270e8461268e565b925061271c6020850161268e565b9150604084013590509250925092565b600080600080600080600060e0888a031215612746578283fd5b61274f8861268e565b965061275d6020890161268e565b95506040880135945060608801359350608088013560ff81168114612780578384fd5b9699959850939692959460a0840135945060c09093013592915050565b600080604083850312156127af578182fd5b6127b88361268e565b9150602083013567ffffffffffffffff808211156127d4578283fd5b818501915085601f8301126127e7578283fd5b8135818111156127f9576127f9612bf8565b604051601f8201601f19908116603f0116810190838211818310171561282157612821612bf8565b81604052828152886020848701011115612839578586fd5b82602086016020830137856020848301015280955050505050509250929050565b6000806040838503121561286c578182fd5b6128758361268e565b946020939093013593505050565b600060208284031215612894578081fd5b5035919050565b600082516128ad818460208701612b81565b9190910192915050565b60006020825282518060208401526128d6816040850160208701612b81565b601f01601f19169190910160400192915050565b6020808252602c908201527f46756e6374696f6e206d7573742062652063616c6c6564207468726f7567682060408201526b19195b1959d85d1958d85b1b60a21b606082015260800190565b6020808252602c908201527f46756e6374696f6e206d7573742062652063616c6c6564207468726f7567682060408201526b6163746976652070726f787960a01b606082015260800190565b6020808252602e908201527f496e697469616c697a61626c653a20636f6e747261637420697320616c72656160408201526d191e481a5b9a5d1a585b1a5e995960921b606082015260800190565b6020808252818101527f4f776e61626c653a2063616c6c6572206973206e6f7420746865206f776e6572604082015260600190565b60008219821115612a1857612a18612be2565b500190565b600082612a3857634e487b7160e01b81526012600452602481fd5b500490565b80825b6001808611612a4f5750612275565b818704821115612a6157612a61612be2565b80861615612a6e57918102915b9490941c938002612a40565b600061067360001960ff851684600082612a9657506001610673565b81612aa357506000610673565b8160018114612ab95760028114612ac357612af0565b6001915050610673565b60ff841115612ad457612ad4612be2565b6001841b915084821115612aea57612aea612be2565b50610673565b5060208310610133831016604e8410600b8410161715612b23575081810a83811115612b1e57612b1e612be2565b610673565b612b308484846001612a3d565b808604821115612b4257612b42612be2565b02949350505050565b6000816000190483118215151615612b6557612b65612be2565b500290565b600082821015612b7c57612b7c612be2565b500390565b60005b83811015612b9c578181015183820152602001612b84565b8381111561111d5750506000910152565b600281046001821680612bc157607f821691505b60208210811415611aec57634e487b7160e01b600052602260045260246000fd5b634e487b7160e01b600052601160045260246000fd5b634e487b7160e01b600052604160045260246000fdfe416464726573733a206c6f772d6c6576656c2064656c65676174652063616c6c206661696c6564a26469706673582212209dead4e800b8d398a6c7f290d142d1127c4a2a96b4c9dcbfd4b53e8beefe692f64736f6c63430008020033",
  "linkReferences": {},
  "deployedLinkReferences": {}
}